:020000040800F2
:1000000070090020790200088102000883020008BC
:10001000850200088702000889020008000000002D
:100020000000000000000000000000008B0200083B
:100030008D020008000000008F02000891020008F5
:10004000930200089302000893020008930200083C
:10005000930200089302000893020008930200082C
:10006000930200089302000893020008810300082D
:10007000930200089302000893020008930200080C
:100080009302000800000000930200089302000899
:1000900093020008930200089302000893020008EC
:1000A00093020008930200089302000893020008DC
:1000B00093020008930200089302000893020008CC
:1000C00093020008930200089302000893020008BC
:1000D00093020008930200089302000893020008AC
:1000E000930200089302000893020008930200089C
:1000F0009302000893020008930200080000000029
:1001000000000000930200080000000093020008B5
:1001100093020008000000008923000893020008F1
:10012000930200089302000893020008930200085B
:100130009302000800000000000000009302000885
:100140009302000893020008000000000000000075
:10015000000000000000000000000000000000009F
:1001600000000000000000000000000093020008F2
:1001700093020008000000000000000000000000E2
:1001800000000000930200080000000000000000D2
:10019000000000000000000000000000000000005F
:1001A0000000000000000000930200089302000815
:1001B0009302000893020008930200080000000068
:1001C0000000000093020008000000000000000092
:1001D000930200089302000800F002F800F03CF8D7
:1001E0000AA090E8000C82448344AAF10107DA4592
:1001F00001D100F031F8AFF2090EBAE80F0013F0A8
:10020000010F18BFFB1A43F001031847B428000080
:10021000D4280000103A24BF78C878C1FAD8520711
:1002200024BF30C830C144BF04680C607047000070
:100230000023002400250026103A28BF78C1FBD8EF
:10024000520728BF30C148BF0B6070471FB502F08E
:1002500029FB1FBD10B510BD00F058F81146FFF77F
:10026000F5FF02F001FB00F076F803B4FFF7F2FFB0
:1002700003BC00F07DF800000948804709480047AA
:10028000FEE7FEE7FEE7FEE7FEE7FEE7FEE7FEE746
:10029000FEE7FEE704480549054A064B70470000A3
:1002A00019230008D90100087003002070090020FC
:1002B00070050020700500204FF0000200B51346C5
:1002C00094469646203922BFA0E80C50A0E80C5076
:1002D000B1F12001BFF4F7AF090728BFA0E80C5027
:1002E00048BF0CC05DF804EB890028BF40F8042B20
:1002F00008BF704748BF20F8022B11F0804F18BF8D
:1003000000F8012B7047704770477047754600F042
:100310002BF8AE4605006946534620F00700854697
:1003200018B020B5FFF7B6FFBDE820404FF000063B
:100330004FF000074FF000084FF0000B21F00701CD
:10034000AC46ACE8C009ACE8C009ACE8C009ACE810
:10035000C0098D46704710B50446AFF300802046B3
:10036000BDE81040FFF781BF004870470C03002034
:1003700001491820ABBEFEE72600020070470000CE
:100380000948016889070DD5416841F002014160C3
:100390000648016881F0400101608006816841F0F3
:1003A00010018160704700000000024014080048FE
:1003B000284A08B5936823F0010393609368DB072C
:1003C000FCD1936843F002039360D160224911612C
:1003D00050614FF0A0408168C90706D0816841F0A4
:1003E000020181608168C907FCD1816841F08051B8
:1003F000816000214FF4FA63009100BF491C009115
:100400009942FAD3816841F080418160816841F06E
:100410000041816081680029FCDBC16841F4005122
:10042000C160C16841F00101C160C16841F00201D1
:10043000C160816841F0010181600168C907FCD099
:10044000916841F001019160816841F0040181608F
:1004500008BD000000000240400000500D49026845
:100460008A4201D20C4901E00B492031D2B2142357
:10047000083AB2FBF3F2436C02F01F0223F00303CD
:100480001944816404498031C164012191400165AE
:100490007047000008040240000802400179074A42
:1004A00002EB81024265054A4432491E826501F031
:1004B0001F0201219140C16570470000FC08024005
:1004C00072B6FEE72DE9F047044690F858009CB05C
:1004D0000E464FF00009012815D0012084F858007D
:1004E00000251795189520684FF0A04840450ED17B
:1004F000284F0097384601F069FD8246206801F0D8
:1005000065FD60B10EE002201CB0BDE8F087E06D33
:1005100040F02000E06584F858500120F4E7BAF17B
:10052000000F09D0E06D40F02000E0654FF00109B8
:1005300084F858504846E7E71748326840F61F717C
:10054000002A826822F4604216D094F8383042EAD9
:10055000433273681A438260D8F80820BB6802F0FF
:10056000010203F001031A43E2D1B36832681A436F
:1005700083688B431A430BE08260D8F80820BB687D
:1005800002F0010203F001031A43D1D182688A43C9
:100590008260CDE700010050000300502DE9F84FC4
:1005A00000270446009790F85800DFF8E0930D46C6
:1005B000B846012811D0012684F85860206801F05F
:1005C00001FD60B1E06D40F02000E0655FF00107E3
:1005D00084F858803846BDE8F88F0220FBE7D5E95B
:1005E00000210C23206803EA91131844036B01F0E7
:1005F0001F014FF01F0C0CFA01FCC2F3846223EAC6
:100600000C038A4013430363206801F0DBFC82463D
:10061000206801F0D3FC5AEA00003CD1AA6829689E
:100620002068B2F1004F37D001F0D4FC2068416956
:1006300021F00041416120686969C268C2F3C102CA
:10064000520091402A69042A31D000EB82002B68C5
:10065000026EDFF83CC303F0F84302EA0C020B43DE
:100660001A4342F00041016620682A69A96900EB3B
:100670008200026E22F080720A430266297F22689D
:100680002869012910D0002102EB8000026E22F0BF
:1006900000720A4302667DE0002201F09BFC2068A4
:1006A000416941F00041C5E74FF00071ECE70021DE
:1006B00001F07EFC400320684FF0000172D001F091
:1006C00077FC90FAA0F0B0FA80F1286842036ED06F
:1006D00090FAA0F0B0FA80F0814204D100221146D5
:1006E000206801F086FC0121206801F061FC4003D4
:1006F00020684FF001015DD001F05AFC90FAA0F0A3
:10070000B0FA80F12868420359D090FAA0F0B0FA0C
:1007100080F0814204D100220121206801F069FCAF
:100720000221206801F044FC400320684FF00201E0
:1007300048D001F03DFC90FAA0F0B0FA80F12868B2
:10074000420344D090FAA0F0B0FA80F0814204D184
:1007500000220221206801F04CFC0321206801F0F6
:1007600027FC400320684FF0030133D001F020FC48
:1007700090FAA0F0B0FA80F1286842032FD090FAE6
:10078000A0F0B0FA80F0814204D100220321206859
:1007900001F02FFC2068816811F0010F22D0ACE03D
:1007A00000E004E001F004FCC0F384618DE7C0F3D5
:1007B000846091E701F0FCFBC0F38461A2E7C0F321
:1007C0008460A6E701F0F4FBC0F38461B7E7C0F3EF
:1007D0008460BBE701F0ECFBC0F38461CCE7C0F3BD
:1007E0008460D0E72A7B296850F8B03FC1F3120C2F
:1007F00023EA0C0302F0180C664A22FA0CF20A40B3
:1008000013430360E968494577D1286841031CD048
:1008100090FAA0F1B1FA81F1491C01F01F010929F8
:100820004FEA403132D8002912D000BF90FAA0F12F
:10083000B1FA81F101F1010101F01F0106FA01F69F
:1008400009D100BFC0F3846109E0C0F38461E3E72C
:10085000C0F38461EEE790FAA0F1B1FA81F101F101
:10086000010101F01F0146EA816102D1C0F38460F9
:1008700003E090FAA0F0B0FA80F000F1010000F07F
:100880001F0000EB400041EA005132E000290ED089
:1008900090FAA0F1B1FA81F101F1010101F01F011B
:1008A00006FA01F606D100BFC0F3846106E0C0F38A
:1008B0008461F1E790FAA0F1B1FA81F101F101014F
:1008C00001F01F0146EA816102D1C0F3846003E0B8
:1008D00090FAA0F0B0FA80F000F1010000F01F00E3
:1008E0002D4A00EB400002EB005041EA000141F0CC
:1008F0000071AA68206801F06DFB28482A6802424E
:100900003FF466AE26488168264B01F0E0719A42BA
:1009100002D0254B9A421CD10B021AD42268B2F1A4
:10092000A04F7FF455AE826841F4000122F0E072DE
:100930000A4382601D481E490068B0FBF1F0401C6C
:1009400000EB4000800000E0401E00900028FBD13A
:100950003EE6184D184BAA4207D1CD0105D42268B6
:100960009A42F5D041F0807109E0144DAA42EFD1CE
:100970004A02EDD422689A42EAD041F480018268AA
:1009800022F0E0720A43826022E6000000007F400D
:1009900000F0FF03FFFF0700000020FE00000880BA
:1009A00000030050000021C31000C090140000207C
:1009B000400D0300000052C700010050000084CB2E
:1009C000F8B54FF0000504002E46009502D0E06D0A
:1009D00010B107E00120F8BD204600F0EBF82666D4
:1009E00084F8586020688168C1F3407119B181684A
:1009F000684A1140816020688168C1F3007189B93B
:100A00008168654A114041F08051816063486449C2
:100A10000068B0FBF1F04000801C00E0401E009038
:100A20000028FBD120688168C1F3007141B9E16DF4
:100A300041F01001E165216E41F0010121660125BF
:100A400001F0C0FAE16DC90600D430B1E06D40F0AC
:100A50001000E06501252846F8BDE06D20F48070A7
:100A600040F00200E0652068806810F0010F11D1AD
:100A70004FF0A04080684B4900F00100896801F008
:100A80000101084306D148486168826822F47C125B
:100A90000A438260E168E06B627F0843A16841EA33
:100AA0004231084394F8241040EA0140012904D15E
:100AB000218D3E4A02EB41410843E16A29B101F42C
:100AC0007871226B014342EA01002268D168384BF9
:100AD00019400143D16020680169626B21F04061D7
:100AE00011430161206801F069FA70BB207F94F81E
:100AF0003810800340EA41022168C86844F20203CA
:100B000098431043C86020690028206801690AD012
:100B100041F480310161206850F8C01F22696FF3F1
:100B20000D01114307E021F480310161206850F884
:100B3000C01F6FF30D01016094F8400001280CD034
:100B40002068016921F001010161606901282068C4
:100B5000016B21F00F0111D013E0D4E9110108431A
:100B6000D4E913121143084321680A6940F2FC7367
:100B70009A43104340F001000861E6E7226A521EE2
:100B800011430163E06D20F0020040F00100E065D8
:100B900061E70000C0FFFF5FC0FFFF7F140000207F
:100BA000400D030000010050000300500000FEFF54
:100BB0000740F0FF70B598B00546142111A8FFF763
:100BC0007BFB44216846FFF777FB2868B0F1A04F14
:100BD0003DD14FF40040009080030F90684600F034
:100BE000BFFA08B1FFF76CFC1A49C86C40F400501A
:100BF000C864C86C00F400501690C86C40F0010046
:100C0000C864C86C002600F0010016900320CDE9EE
:100C10001206119011A94FF0904000F081F80F4C8E
:100C20000D4820600520C4E901068020C4E9036066
:100C3000400060618000A0612020C4E907062046D2
:100C400000F00EF808B1FFF73BFC6C65A56218B028
:100C500070BD000000100240080002401402002095
:100C600070B504000CD02B4A21681420914209D29F
:100C7000294A0A44B2FBF0F08000606427480AE089
:100C8000012070BD234A52420A44B2FBF0F08000BA
:100C90006064204808382064022084F825000A682F
:100CA00047F6F0708243D4E902031843D4E90435CF
:100CB0002B431843A3691843E3691843236A184375
:100CC000104308602046FFF7C9FBA0680025B0F577
:100CD000804F00D16560A16C20790860D4E91301D0
:100CE00041606068401E032808D82046FFF7D6FB05
:100CF000606D0560D4E91601416002E06565A56597
:100D0000E565E563012084F8250084F8245000207F
:100D100070BD000008040240F8FFFDBF0000024063
:100D20002DE9F04FDFF82092002301260324A9F1DA
:100D3000040B85B00F2709F1040AABF1040EFAE0A9
:100D400006FA03F52A407CD091F804C00CF0030C9D
:100D5000BCF1010F02D0BCF1020F26D1D0F808C0BF
:100D6000CDF800C04FEA430C04FA0CF8CDF810C0DF
:100D7000DDF800C02CEA080CCDF800C0D1F80C80DA
:100D8000DDF810C008FA0CF8DDF800C048EA0C08DD
:100D9000C0F80880D0F804C02CEA050C0D79C5F322
:100DA00000159D4045EA0C0545600D79ED43AD0702
:100DB0000ED0C5684FEA430804FA08FC25EA0C0582
:100DC000D1F808C00CFA08FC4CEA050CC0F80CC0BD
:100DD0000D7905F00305022D16D1DD0800EB850C19
:100DE000CDF808C0DCF820805D074FEAD56C07FA23
:100DF0000CF528EA05080D6905FA0CF5DDF808C0C0
:100E000045EA0805CCF8205005684FEA430CCDF8B8
:100E100008C004FA0CFC25EA0C0591F804C00CF09B
:100E20000308DDF808C008FA0CF848EA0508C0F81D
:100E300000804D6815F4403F7CD0444DD5F860C02B
:100E400000E077E04CF0010CC5F860C02D6E23F097
:100E5000030C05F0010500953D4D65440295AD6814
:100E60004FEA837C4FEA1C7807FA08FC25EA0C0558
:100E7000B0F1904F06D0DFF8DCC0604505D14FF0EF
:100E8000010C20E04FF0000C1DE0DFF8CCC0604505
:100E900002D14FF0020C16E0DFF8C0C0604502D16D
:100EA0004FF0030C0FE0DFF8B8C0604502D14FF0FF
:100EB000040C08E0DFF8ACC0604502D14FF0050C2F
:100EC00001E04FF0060C0CFA08FC4CEA050C029D00
:100ED000C5F808C0D9F80050CC46D1F80480954335
:100EE0005FEAC82800D51543CCF80050DAF8005066
:100EF000D446D1F8048095435FEA882800D515438D
:100F0000CCF80050DBF80050DC46D1F80480954363
:100F10005FEA883800D51543CCF80050DEF8005061
:100F2000F446D1F8048095435FEAC83800D51543EC
:100F3000CCF800505B1C0A6832FA03F57FF400AF6E
:100F400005B0BDE8F08F0000080401400010024029
:100F5000000001400004004800080048000C004860
:100F600000100048001400480AB181617047816296
:100F700070470000014880687047000008000020AA
:100F800010B50024032000F073F80F2000F008F8DB
:100F900008B1012401E000F025F8204610BD000052
:100FA00070B50E4E05460024706898B14FF47A7102
:100FB000B1FBF0F00A490968B1FBF0F000F03AFD2E
:100FC00040B9102D06D200222946501E00F030F8FC
:100FD000356000E00124204670BD000008000020BC
:100FE000140000200A4882B0016E41F00101016640
:100FF000016E01F001010091816D41F08051816528
:10100000806D00F08050009002B000F0A1B80000A8
:1010100000100240002809DB00F01F02012191406E
:101020004009800000F1E020C0F800117047000086
:10103000F0B40E4B1B680C46C3F30223C3F1070543
:10104000042D00D90425191D072901D2002300E031
:10105000DB1E012606FA05F1491E214099409E40FB
:10106000761E16403143F0BC01F0DBBB0CED00E016
:10107000064900F0070208684FF6FF03184040EAEF
:101080000220034A10430860704700000CED00E0A6
:101090000000FA052B492C4B0A6832214A432B49A0
:1010A00040B1B0F5007F086829D020F4C06040F45A
:1010B00080602CE00868C0F34120022804D051F879
:1010C000800F20F4807022E0D1F8800020F480703E
:1010D000C1F88000086820F4C06040F40070086027
:1010E000B2FBF3F0401C00E0401E4A69520501D5F6
:1010F0000028F9D1486940050AD503207047C0F39C
:101100004120022806D051F8800F40F4807008601A
:1011100000207047D1F8800040F48070C1F8800052
:10112000086820F4C06040F400700860B2FBF3F07F
:10113000401C00E0401E4A695205DBD50028F9D169
:10114000D8E700001400002040420F00007000406B
:101150000248816841F4804181607047007000401E
:101160002DE9F8430446006800269D4D00035ED536
:10117000A86D0027C00008D4A86D40F08050A86575
:10118000A86D012700F080500090DFF85892D9F840
:10119000001041F48071C9F80010FFF7EBFE8046A3
:1011A00006E000BFFFF7E6FEA0EB080002282BD800
:1011B000D9F80000C005F5D5D5F8900010F44070BE
:1011C00014D0216C814211D0D5F89000D5F8901040
:1011D00020F4407041F48031C5F89010D5F890109B
:1011E00021F48031C5F89010C5F89000C00711D0E7
:1011F000FFF7C0FE804641F2883907E0FFF7BAFEEC
:10120000A0EB0801494501D903260BE0D5F8900071
:101210008007F3D5D5F89000216C20F44070084386
:10122000C5F890001FB1A86D20F08050A865207807
:10123000C00707D0D5F88800616820F00300084394
:10124000C5F888002078800707D5D5F88800A16800
:1012500020F00C000843C5F888002078400707D527
:10126000D5F88800E16820F030000843C5F8880010
:101270002078000707D5D5F88800216920F0C00044
:101280000843C5F888002078800607D5D5F888007F
:10129000616920F440600843C5F888002078400662
:1012A00007D5D5F88800A16920F440500843C5F857
:1012B00088002078000607D5D5F88800E16920F479
:1012C00040400843C5F888002088C00507D5D5F8F8
:1012D0008800216A20F440300843C5F8880020883F
:1012E000800507D5D5F88800616A20F440200843BE
:1012F000C5F88800208840050FD5D5F88800A16A78
:1013000020F440100843C5F88800A06AB0F5801F9B
:1013100003D1E86840F48010E860208800050FD50C
:10132000D5F88800E16A20F440000843C5F8880039
:10133000E06AB0F5800F03D1E86840F48010E860FF
:101340002088C0040FD5D5F88800216B20F04070AC
:101350000843C5F88800206BB0F1807F03D1E868AE
:1013600040F48010E86020884FF0006180040ED5C2
:10137000D5F88800626B20F040601043C5F8880003
:10138000606B884203D1E86840F48010E8602088F0
:1013900040040ED5D5F88800A26B20F040601043C1
:1013A000C5F88800A06B884203D1E86840F480103B
:1013B000E860208800040FD5D5F88800E16B20F0A4
:1013C00040500843C5F88800E06BB0F1805F03D15E
:1013D000E86840F48030E8603046BDE8F8830000FB
:1013E00000100240007000402DE9F0470E46050055
:1013F0004FF0000725D0DFF8AC81D8F8000000F0EE
:101400000F00B0420CD2D8F8001021F00F01314388
:10141000C8F80010D8F8000000F00F00B04210D15A
:101420002968614CC80741F2883A5AD06868DFF8E9
:101430007C91032808D0022820682DD04005002880
:101440002CDB0120BDE8F08720688001F9D5E06839
:1014500000F00302E068C0F30310401C032A19D017
:10146000534A00BFB2FBF0F0E268C2F306225043D9
:10147000E268C2F34162521C5200B0FBF2F04845F0
:1014800017D9A06810F0F00F0CD0880711D5A86804
:1014900040B10EE0474AE5E78003D0E700F092F85C
:1014A000484506D9A06820F0F00040F08000A06018
:1014B0008027A068696820F003000843A060FFF758
:1014C00059FD814606E000BFFFF754FDA0EB09017E
:1014D00051453AD8A068696800F00C00B0EB810F64
:1014E000F2D12868810714D5400703D5A06840F4DD
:1014F000E060A0602878000705D5A06820F460505F
:1015000040F4E060A060A068A96820F0F000084303
:1015100004E0802F03D1A06820F0F000A060D8F88C
:101520000010404601F00F01B14216D9016821F0C8
:101530000F0131430160FFF71DFD074607E000BFC3
:10154000FFF718FDC11B514501D903207AE7D8F8F0
:10155000000000F00F00B042F2D12878400705D516
:10156000A068E96820F4E0600843A06028780007DC
:1015700006D5A068296920F4605040EAC100A06047
:1015800000F020F8A1680C4AC1F30311515C01F08E
:101590001F01C8400949086009480068BDE8F047D4
:1015A000FFF7FEBC002002400010024000B4C4045B
:1015B0000024F40000127A00AE2A00081400002073
:1015C00008000020184910B58868C0F38102174848
:1015D000012A0BD08A684310C2F38102022A06D086
:1015E0008A68C2F38102032A03D0002010BD184686
:1015F00010BDCA6802F00304CA68C2F30312521C89
:10160000032C02D0B0FBF2F001E0B3FBF2F0CA68A9
:10161000C968C2F306225043C1F34161491C490025
:10162000B0FBF1F010BD0000001002400024F400F7
:101630002DE9F84304007AD02078F84DC00747D050
:10164000A868E96800F00C0001F003010C2802D042
:10165000082817D001E0032914D06068B0F5803F56
:1016600017D0B0F5A02F286817D020F4803028605C
:10167000286820F4802028606068E0B1FFF77AFCD9
:10168000064614E02868800322D560680028D2D07E
:101690001EE0286840F48030EDE740F480202860A8
:1016A000F7E700BFFFF766FC801B642870D8286846
:1016B0008003F7D50CE0FFF75DFC064605E000BFB0
:1016C000FFF758FC801B6428F0D828688003F7D403
:1016D000207880074CD5A868E96800F00C0001F07C
:1016E00003010C2802D004280DD001E002290AD001
:1016F000E068002828682BD040F480702860FFF74D
:1017000039FC064619E02868400502D5E068002843
:1017100091D06868217C20F0FE4040EA016068605A
:10172000BF480068FFF73CFC002800D120E072E1D0
:10173000FFF720FC801B0228B8D828684005F7D5A1
:101740006868217C20F0FE4040EA016068600FE09C
:1017500020F480702860FFF70DFC064605E000BF0E
:10176000FFF708FC801B0228A0D828684005F7D4A2
:101770002078000729D560690028D5F8940013D097
:1017800040F00100C5F89400FFF7F4FB064606E0C0
:1017900090E000BFFFF7EEFB801B022886D8D5F84B
:1017A00094008007F6D510E020F00100C5F8940001
:1017B000FFF7E0FB064604E0FFF7DCFB801B022896
:1017C00078D8D5F894008007F6D42078400761D502
:1017D000A86D0026C00008D4A86D40F08050A86510
:1017E000A86D012600F0805000908E480168C90560
:1017F00011D40168804641F480710160FFF7BAFBA3
:10180000074604E0FFF7B6FBC01B022852D8D8F801
:101810000000C005F6D5A068012815D00528D5F828
:10182000900016D020F00100C5F89000D5F8900087
:1018300020F00400C5F89000A06841F28838B8B1E3
:10184000FFF798FB07460EE0D5F8900040F0010046
:10185000F0E740F00400C5F89000F5E7FFF78AFBD9
:10186000C11B414526D8D5F890008007F6D50CE07D
:10187000FFF780FB074604E0FFF77CFBC11B4145F7
:1018800018D8D5F890008007F6D41EB1A86D20F0C6
:101890008050A8652078800629D5A0690028D5F851
:1018A000980013D040F00100C5F89800FFF762FBE4
:1018B000064606E075E000BFFFF75CFB801B0228D0
:1018C0006FD8D5F898008007F6D510E020F0010019
:1018D000C5F89800FFF74EFB064604E0FFF74AFB09
:1018E000801B02285DD8D5F898008007F6D4E069FF
:1018F000F0B3A968C1F3810103295DD002282868EB
:1019000020F08070286003D0FFF734FB04464BE0E2
:10191000FFF730FB064604E0FFF72CFB801B022894
:101920003FD828688001F7D4F4E908016FF00F026E
:1019300002EB01110843218A5204490802EB41518C
:10194000A26841EA02210843217D4FF07E42490806
:1019500002EB41610843217B40EAC160E968324AF9
:1019600011400843E860286840F08070286000E07B
:101970005EE0E86840F08070E860FFF7FBFA04463C
:1019800005E000BFFFF7F6FA001B022809D8286817
:101990008001F7D54CE000BFFFF7ECFA001B0228EE
:1019A00002D90320BDE8F88328688001F4D4E868F0
:1019B0001E490840E8603BE00128F3D0E868226A4D
:1019C00000F00301914226D1616A00F0F0020901A2
:1019D000103991421FD1A26A00F4FE41B1EB022FEF
:1019E00019D194F82C2000F07841B1EBC26F12D1DC
:1019F000218E00F4C00249084905A1F50011914269
:101A000009D194F8341000F0C06049084906A1F1EA
:101A1000007181420CD00120C4E700000010024098
:101A200008000020007000400C809F01FCFFEEFECB
:101A30000020B7E710B5401EB0F1807F01D3012030
:101A400010BD4FF0E02460610F21601700F0E9FE47
:101A50000020A06107202061002010BD30B590F863
:101A60003C20012A42D0012280F83C20CA688B68C1
:101A700022F440721A434B6822F480621A430B68C6
:101A800022F400621A430B6922F480521A434B6914
:101A900022F400521A430B6B22F480421A430B8B40
:101AA00022F4702242EA0342CB6922F080521A43A8
:101AB0000F4D03680024AB4202D00E4DAB4210D153
:101AC0000D8D22F4700242EA05520D6A22F08072F6
:101AD0002A434D6A22F000722A43C96A22F000525A
:101AE0000A435A6480F83C40002030BD022030BDDB
:101AF000002C0140003401400068416D41F4003188
:101B00004165002070470000F0B590F83C20012AA4
:101B10003AD0012580F83C50022280F83D2003682D
:101B20005A689C68194E1A4FB34201D0BB4204D187
:101B300022F4700C4A6842EA0C02DFF858C002EA4C
:101B40000C02D1F800C04CEA020CC3F804C00268D1
:101B5000B2420DD0B2F1804F0AD00F4B9A4207D05B
:101B60000E4B9A4204D0BA4202D00D4B9A4204D195
:101B7000896824F080031943916080F83D5000216A
:101B800080F83C100846F0BD0220F0BD002C01405A
:101B9000003401408FFFFFFD0004004000080040BA
:101BA0000040014010B5040003D094F83D0010B18E
:101BB00007E0012010BD002084F83C00204600F022
:101BC00023F8022084F83D00211D206800F0FEFB70
:101BD000012084F8480084F83E0084F83F0084F82F
:101BE000400084F8410084F8420084F8430084F8FF
:101BF000440084F8450084F8460084F8470084F8DF
:101C00003D00002010BD000008B5114A01681148D0
:101C1000914208D1016E41F400610166006E00F44A
:101C20000060009008BD0C4A9142FBD1816D41F0EB
:101C300010018165806D002200F0100000901146B7
:101C40003620FFF7F5F9BDE808403620FFF7E2B986
:101C5000002C0140001002400010004070B5044606
:101C600090F83C000025012814D0012684F83C603F
:101C7000022084F83D0022689068364B184020F41A
:101C80007F409060086870282ED010DC10F00F0F95
:101C900003D021E04FF0020070BD4FEA2012072A66
:101CA0001AD2DFE802F0525252524A3840002A4B10
:101CB000C21A984249D009DCB0F5805F0DD0B0F56A
:101CC000005F1CD0B0F1101F06D13EE0102A3CD0BE
:101CD000202A3AD0502A38D0012584F83D600020CF
:101CE00084F83C00284670BDCB68D1E9012120680A
:101CF00000F0CAFB2068816841F0770109E0CB68F9
:101D0000D1E90121206800F0BFFB2068816841F41F
:101D100080418160E1E7CA684968206800F05EFDA3
:101D20005021206806E0CA684968206800F067FD15
:101D30006021206800F0B2FBCFE7CA6849682068DC
:101D400000F04CFD40212068F4E72268014610466F
:101D5000F0E7000088FFCEFF20001000F0B587B04C
:101D6000044614216846FEF7A7FA2A4920688842EB
:101D70004ED12948C16C41F00401C164C16C01F02D
:101D800004010591C16C41F02001C164C16C01F0F6
:101D900020010591C16C41F00201C164C16C01F0E8
:101DA00002010591C16C41F00101C164C06C0225C2
:101DB00000F0010005904FF4005000900024CDE9A0
:101DC00001540420CDE9034069461448FEF7A8FFFA
:101DD00001270097CDE901540626CDE9034669465F
:101DE0000F48FEF79DFF0097CDE90154CDE903466A
:101DF00069460C48FEF794FF4FF4E0600090CDE98F
:101E00000154CDE9034669464FF09040FEF788FF44
:101E100007B0F0BD002C014000100240000800484F
:101E2000001400480004004870B5044690F83C00D7
:101E300000260D4601280BD0012084F83C000C2A16
:101E40004AD007DC82B1042A20D0082A06D131E02A
:101E5000022070BD102A53D0142A63D0012600201E
:101E600084F83C00304670BD206800F021FB2068FB
:101E7000816941F0080181612068816921F00401D4
:101E80008161206881692A69114311E0206800F0AE
:101E90005DFB2068816941F400618161206881698E
:101EA00021F480618161206881692A6941EA022107
:101EB0008161D4E7206800F091FB2068C16941F09E
:101EC0000801C1612068C16921F00401C161206875
:101ED000C1692A69114311E0206800F0C7FB20683E
:101EE000C16941F40061C1612068C16921F4806168
:101EF000C1612068C1692A6941EA0221C161AEE776
:101F0000206800F0FBFB2068016D41F008010165CD
:101F10002068016D21F0040101652068016D2A69C6
:101F2000114311E0206800F021FC2068016D41F4AC
:101F3000006101652068016D21F480610165206800
:101F4000016D2A6941EA0221016588E710B50400A4
:101F500003D094F83D0010B107E0012010BD00202F
:101F600084F83C00204600F022F8022084F83D006E
:101F7000211D206800F02AFA012084F8480084F826
:101F80003E0084F83F0084F8400084F8410084F863
:101F9000420084F8430084F8440084F8450084F843
:101FA000460084F8470084F83D00002010BD7047CB
:101FB00000EB8100006E00F0F84070478068C0F3CD
:101FC000C00070478068C0F3800070478068C0F32D
:101FD00080007047042303EAD15310B518444369C5
:101FE000C1F3045107248C40A3438A401343436147
:101FF00010BD00EB8100016E21F00041114301662C
:102000007047000030B58BB000240894099420215B
:1020100068460A94FEF750F91D484FF0A041042588
:1020200001604FF44031C0E90114C4600461C0E9AB
:102030000545012104774177016280F824408A0236
:10204000C262026380F83810C46380F84040FEF733
:10205000B7FC08B1FEF734FA08A90D480894FEF75A
:1020600031FA08B1FEF72CFA0A4800900620CDE9B3
:10207000010409480594CDE9030569460448FEF7C3
:102080008DFA002801D0FEF71BFA0BB030BD00001E
:10209000A80100200200300400007F400D4808B570
:1020A000816C41F004018164816C01F004010091B4
:1020B000816C41F001018164806C002200F001001C
:1020C000009011460B20FEF7B3FFBDE808400B203F
:1020D000FEF7A0BF0010024010B586B0142168467C
:1020E000FEF7EAF81948C16C41F00401C164C16C03
:1020F00001F004010591C16C41F02001C164C16C83
:1021000001F020010591C16C41F00101C164C16C75
:1021100001F001010591C16C41F00201C164C06C84
:102120000B4C00F002000590002240212046FEF7F3
:102130001BFF4020009001200021CDE90101039107
:1021400069462046FEF7ECFD06B010BD00100240C7
:102150000008004810B59CB0002419941A941794F4
:102160001894149415941C210DA81694FEF7A4F845
:1021700034216846FEF7A0F837483649C0E9001414
:1021800044F26821C0E90241046144618461FFF7BF
:1021900009FD08B1FEF794F94FF48050179017A984
:1021A0002D48FFF75BFD08B1FEF78AF92A48FFF7D3
:1021B000CDFE08B1FEF784F91494159414A92648AD
:1021C0001694FFF7A1FC08B1FEF77AF960200D9094
:1021D00042F23410CDE90E041094119412940022AE
:1021E0000DA91D481394FFF71FFE08B1FEF768F90B
:1021F00004220DA91848FFF717FE08B1FEF760F991
:1022000008220DA914480E94FFF70EFE08B1FEF740
:1022100057F91148FFF770FCAA20CDE9024000945D
:102220004FF40050CDE904400003CDE9084001948B
:10223000069407940A940B94694607480C94FFF798
:102240000DFC08B1FEF73CF90348FFF787FD1CB011
:1022500010BD0000002C0140740200203EB5002497
:102260000E48009401940C490294C0E9001448F20D
:10227000D041C0E902418461FFF794FC08B1FEF748
:102280001FF90094694605480294FFF73DFC0028B9
:1022900001D0FEF715F93EBD00100040C00200203D
:1022A00010B500F0CFFA0149C86010BD000002402F
:1022B00000B593B038216846FDF7FEFF14210EA843
:1022C000FDF7FAFF0020FEF7E5FE0220C1010391B1
:1022D000402104910421CDE9080100905521CDE968
:1022E0000A1007900C900D906846FFF7A1F908B10D
:1022F00072B6FEE70F200E9003200F900020109082
:102300001190129004210EA8FFF76EF8002801D05A
:1023100072B6FEE713B000BD0248016841F47001D7
:102320000160704788ED00E01248016841F4004107
:10233000016010484438016841F0400101600D48D7
:102340002438016841F001010160016841F0040195
:102350000160016841F010010160016841F0400135
:102360000160016841F480710160016841F480619D
:1023700001607047442C01400248016841F00101AE
:1023800001607047002C0140074810B5016921F039
:10239000010101610548008800F05EFA0449086007
:1023A000BDE81040FFF77CBF001000400000002097
:1023B000342C01400448016841F001010160C1680A
:1023C00041F00101C1607047001000402DE9F04369
:1023D0000268264B264D274E274C4FF080499842E5
:1023E00007D0484505D0A84203D0B04201D0A04252
:1023F00003D122F070074A683A43204FDFF880C0CB
:10240000DFF8808098420DD048450BD0A84209D013
:10241000B04207D0A04205D0B84203D0604501D0F9
:10242000404503D122F44075CA682A434D6922F021
:1024300080022A4302608A68C2620A688262984205
:1024400007D0A04205D0B84203D0604501D0404536
:1024500001D109690163012141610169C90703D003
:10246000016921F001010161BDE8F083002C014008
:1024700000040040000800400034014000400140DA
:10248000004401400048014010B5846842EA03223C
:1024900024F47F440A432243826010BD8268034BC8
:1024A0001A400A4342F00701816070478FFFCFFF57
:1024B0002DE9F043056A026A22F0010202624368D4
:1024C00082691C4C25F0020522400C6822F00302B0
:1024D00014438A68194E2A43174D194FDFF864C018
:1024E000DFF86490A84207D0B04205D0B84203D0CC
:1024F000604501D0484506D122F00808CA6842EA82
:10250000080222F00402A84207D0B04205D0B84227
:1025100003D0604501D0484505D14D6923F440738F
:102520001D438B692B4343608461496841630262A8
:10253000BDE8F0838FFFFEFF002C01400034014016
:10254000004001400044014000480140F0B5056AE8
:10255000026A22F01002026242688369194C1B4E23
:1025600023400C6823F4407343EA042425F020033D
:102570008D6843EA0513144DA84201D0B04206D13C
:10258000CF6823F0800343EA071323F04003A842F7
:102590000AD0B04208D00E4DA84205D00D4DA84239
:1025A00002D00D4DA84207D14D6922F4406242EAA3
:1025B00085028D6942EA85024260846149688163CF
:1025C0000362F0BDFF8FFFFE002C0140003401408C
:1025D000004001400044014000480140F0B5056A58
:1025E000026A22F4807202624368C269194C1B4E6F
:1025F00022400C6822F00302144325F400728D6817
:1026000042EA0522144DA84201D0B04206D1CF685B
:1026100022F4006242EA072222F48062A8420AD031
:10262000B04208D00E4DA84205D00E4DA84202D0AF
:102630000D4DA84207D14D6923F4405343EA0513D9
:102640008D6943EA05134360C4614968C16302624E
:10265000F0BD00008FFFFEFF002C01400034014060
:10266000004001400044014000480140F0B5056AC7
:10267000026A22F4805202624268C369194C1B4EFE
:1026800023400C6823F4407343EA042425F40053E8
:102690008D6843EA0533144DA84201D0B04206D1FB
:1026A000CF6823F4004343EA073323F48043A8426E
:1026B0000AD0B04208D00E4DA84205D00D4DA84218
:1026C00002D00D4DA84207D14D6922F4404242EAA2
:1026D00085128D6942EA85124260C46149680164CD
:1026E0000362F0BDFF8FFFFE002C0140003401406B
:1026F00000400140004401400048014030B5056AF7
:10270000026A22F4803202624268036D114C234057
:102710000C681C4325F400330D8943EA05430E4D34
:10272000A8420BD00D4DA84208D00D4DA84205D0AF
:102730000C4DA84202D00C4DA84204D14D6922F4A0
:10274000803242EA0522426004654968816403627E
:1027500030BD00008FFFFEFF002C0140003401401F
:1027600000400140004401400048014030B5046A87
:10277000026A22F4801202624268036D114D24F451
:1027800000142B400D6843EA05230D8944EA0554E3
:102790000D4DA8420BD00D4DA84208D00C4DA842BB
:1027A00005D00C4DA84202D00B4DA84204D14D6972
:1027B00022F4802242EA8522426003654968C164AE
:1027C000046230BDFF8FFFFE002C01400034014049
:1027D00000400140004401400048014010B5036A38
:1027E000046A24F001040462846924F0F00444EAD9
:1027F000021423F00A020A438461026210BD10B57C
:10280000036A046A24F010040462846923F0A003BC
:1028100024F4704444EA023243EA01118261016205
:1028200010BD0907090E002804DB00F1E02080F844
:102830000014704700F00F0000F1E02080F8141D34
:1028400070470000034800683A21B0FBF1F080B205
:1028500070470000342C01400249000A31F8100092
:1028600070470000AE280008FEF78AFBFFF720FD46
:10287000FFF732FCFFF712FCFFF76CFCFFF7EEFCF2
:10288000FFF7C0FBFFF7DEFF01460548FDF790FDAF
:10289000FFF74AFDFFF770FDFFF78CFDFEE7000034
:1028A000180000204FF04070E1EE100A70479A10B7
:1028B00002116B11D3113B12A2120A137113D71319
:1028C0003D14A31408156C15CF1532169416F41682
:1028D0005417B31711186D18C91823197C19D31977
:1028E000291A7E1AD11A221B721BC01B0D1C571CE1
:1028F000A01CE71C2C1D6F1DB01DF01D2D1E681E99
:10290000A11ED71E0C1F3E1F6E1F9C1FC71FF01F4E
:1029100017203C205D207D209A20B520CD20E2208C
:10292000F52006211421202128212F2133213421B3
:1029300033212F212821202114210621F520E220F6
:10294000CD20B5209A207D205D203C201720F01F4F
:10295000C71F9C1F6E1F3E1F0C1FD71EA11E681E87
:102960002D1EF01DB01D6F1D2C1DE71CA01C571C3B
:102970000D1CC01B721B221BD11A7E1A291AD319D7
:102980007C192319C9186D181118B3175417F416A8
:1029900094163216CF156C150815A3143D14D713D1
:1029A00071130A13A2123B12D3116B1102119A1068
:1029B0003210C90F610FF90E920E2A0EC30D5D0D74
:1029C000F70C910C2C0CC80B650B020BA00A400AEB
:1029D000E00981092309C7086B081108B8076107D6
:1029E0000B07B60663061206C20574052705DD044B
:1029F00094044D040804C503840344030703CC0274
:102A000093025D022802F601C60198016D0144019E
:102A10001D01F800D700B7009A007F006700520040
:102A20003F002E00200014000C00050001000000F3
:102A3000010005000C00140020002E003F00520091
:102A400067007F009A00B700D700F8001D0144011D
:102A50006D019801C601F60128025D029302CC02C5
:102A6000070344038403C50308044D049404DD04F0
:102A700027057405C20512066306B6060B07610733
:102A8000B80711086B08C70823098109E009400A43
:102A9000A00A020B650BC80B2C0C910CF70C5D0DFA
:102AA000C30D2A0E920EF90E610FC90F32100000ED
:102AB00000000000000001020304060708090000EE
:102AC000E02A00080000002018000000140200089E
:102AD000F82A0008180000205809000030020008F9
:102AE00000005555AAAA00001000000001000000D7
:082AF000000000000024F400C6
:04000005080001D915
:00000001FF
