:020000040800F2
:10000000C00900207902000881020008830200086C
:10001000850200088702000889020008000000002D
:100020000000000000000000000000008B0200083B
:100030008D020008000000008F02000891020008F5
:10004000930200089302000893020008930200083C
:10005000930200089302000893020008930200082C
:10006000930200089302000893020008F1030008BD
:10007000930200089302000893020008930200080C
:100080009302000800000000930200089302000899
:1000900093020008930200089302000893020008EC
:1000A00093020008930200089302000893020008DC
:1000B000D12600089302000893020008930200086A
:1000C00093020008930200089302000893020008BC
:1000D00093020008930200089302000893020008AC
:1000E000930200089302000893020008930200089C
:1000F0009302000893020008930200080000000029
:1001000000000000930200080000000093020008B5
:100110009302000800000000152700089302000861
:10012000930200089302000893020008930200085B
:100130009302000800000000000000009302000885
:100140009302000893020008000000000000000075
:10015000000000000000000000000000000000009F
:1001600000000000000000000000000093020008F2
:1001700093020008000000000000000000000000E2
:1001800000000000930200080000000000000000D2
:10019000000000000000000000000000000000005F
:1001A0000000000000000000930200089302000815
:1001B0009302000893020008930200080000000068
:1001C0000000000093020008000000000000000092
:1001D000930200089302000800F002F800F03CF8D7
:1001E0000AA090E8000C82448344AAF10107DA4592
:1001F00001D100F031F8AFF2090EBAE80F0013F0A8
:10020000010F18BFFB1A43F001031847F02C000040
:10021000102D0000103A24BF78C878C1FAD85207D0
:1002200024BF30C830C144BF04680C607047000070
:100230000023002400250026103A28BF78C1FBD8EF
:10024000520728BF30C148BF0B6070471FB502F08E
:1002500040FD1FBD10B510BD00F058F81146FFF766
:10026000F5FF02F015FD00F076F803B4FFF7F2FF9A
:1002700003BC00F07DF800000948804709480047AA
:10028000FEE7FEE7FEE7FEE7FEE7FEE7FEE7FEE746
:10029000FEE7FEE704480549054A064B70470000A3
:1002A0004D260008D9010008C0030020C009002025
:1002B000C0050020C00500204FF0000200B5134625
:1002C00094469646203922BFA0E80C50A0E80C5076
:1002D000B1F12001BFF4F7AF090728BFA0E80C5027
:1002E00048BF0CC05DF804EB890028BF40F8042B20
:1002F00008BF704748BF20F8022B11F0804F18BF8D
:1003000000F8012B7047704770477047754600F042
:100310002BF8AE4605006946534620F00700854697
:1003200018B020B5FFF7B6FFBDE820404FF000063B
:100330004FF000074FF000084FF0000BAC46ACE860
:10034000C009ACE8C009ACE8C009ACE8C00921F0BC
:1003500007018D46704710B50446AFF30080204674
:10036000BDE81040FFF781BF00487047180000202B
:1003700001491820ABBEFEE72600020070470000CE
:1003800080B540F2080CC5F2000CDCF800305B07C9
:100390000AD5DCF8003043F01003CCF8003000BF81
:1003A000DCF80030DB06FBD40823C4F202031A6831
:1003B00022F001021A6000BF1A68D207FCD10F2296
:1003C00043F8042C4FF0A04E1C22CEF800205960B8
:1003D0000CF138019960D860186840F0010018608D
:1003E000DCF8000040F00400CCF8000080BD000004
:1003F00080B50420C4F2020050F8041C890758BFDD
:1004000080BD016841F00201016040F61400C4F6AD
:100410000000016841F04001016002F06DF902F056
:100420001DFC014640F27800C2F20000FFF7A8FF71
:1004300080BD000080B581B040F2080EC4F2020E0B
:10044000DEF8003023F00103CEF80030DEF8003093
:10045000DB07FBD1DEF800C00823C5F200034CF037
:100460000202CEF80020CEF8041003F13801CEF8D5
:100470000810CEF80C001868C00706D0186840F0C5
:10048000020018601868C007FCD1186840F080505E
:10049000186000200090009800097C2808D800BF50
:1004A00000BF0098013000900098B0F5FA6FF7D3C4
:1004B000186840F080401860186840F000401860EC
:1004C00018680028FCD4586840F4005058605868F8
:1004D00040F001005860586840F002005860186809
:1004E00040F0010018604FF0A04000BF0168C9074C
:1004F000FCD0DEF8000040F00100CEF800001868E3
:1005000040F00400186001B080BD000080B50168B3
:100510006FF007024CF6CD4352FA81F2CCF6CC4391
:10052000A2FB032C40F20842C4F20202D0F844E0DD
:1005300002F58363914238BF02F57E732EF003010A
:10054000194402F58F6ECCF3041301229A40C0E9DE
:10055000121E026580BD0000017940F600120139CB
:10056000C4F2020202EB810302F1400C01F01F0110
:10057000012202FA01F1C0E9153CC1657047000093
:10058000EFF3108072B600BFFEE700002DE9F041E6
:1005900082B0044690F85800012803D1022002B02E
:1005A000BDE8F081012084F85800002001900090FF
:1005B0002068B0F1A04F10D140F20838C5F2000811
:1005C000A8F5027630460D4601F058FD2168074631
:1005D000084601F053FD38430AD0E06D40F020009A
:1005E000E0650120002184F8581002B0BDE8F081D8
:1005F0002868D8F80010002821F4604013D06968FA
:1006000094F83820084340EA4230C8F800004FF020
:10061000A04001F027FD0746304601F023FD384396
:100620000FD00020DEE7C8F800004FF0A04001F036
:1006300019FD0546304601F015FD28430BD000207A
:10064000D0E7D8F8000040F61F7188432968AA68EF
:100650000843104304E0D8F8000040F61F718843B7
:10066000C8F800000020BDE7F0B581B004460020C6
:10067000009094F85800012802D1022001B0F0BD8A
:1006800020680D46012184F8581001F0F3FC48B1B0
:10069000E06D40F02000E0650120002184F8581052
:1006A00001B0F0BD2068D5E9002101F0EBFC206825
:1006B00001F0E0FC21680646084601F0C7FC304323
:1006C00040F0B880AB68296803F10040B0FA80F0D0
:1006D00047092068B3F1004218BF1A46FE0701F02F
:1006E000E5FC2068314601F047FD206829696B6907
:1006F000C268042940F088804FF6FF770021C0F2DD
:10070000070701F09DFC216806460846002101F01C
:1007100097FC720390FAA0F12A68B1FA81F108BF40
:10072000C0F3846192FAA2F0B0FA80F0530308BFDC
:10073000C2F38460814203D12068002101F014FDDE
:100740002068012101F07CFC216806460846012151
:1007500001F076FC90FAA0F12A68B1FA81F13E42EC
:1007600008BFC0F3846192FAA2F0B0FA80F03A4276
:1007700008BFC2F38460814203D12068012101F0E7
:10078000F3FC2068022101F05BFC21680646084664
:10079000022101F055FC90FAA0F12A68B1FA81F12A
:1007A0003E4208BFC0F3846192FAA2F0B0FA80F032
:1007B0003A4208BFC2F38460814203D1206802211B
:1007C00001F0D2FC2068032101F03AFC21680646C2
:1007D0000846032101F034FC90FAA0F12A68B1FA2E
:1007E00081F13E4208BFC0F3846192FAA2F0B0FAF0
:1007F00080F03A4208BFC2F3846081421AD1206877
:10080000032101F0B1FC15E0062707EA92072A68E8
:10081000BB4001F087FC20682969AA6901F09CFCB3
:100820002A7F2068013AB2FA82F2296952095206F7
:1008300001F08AFC206801F011FC00284DD12068ED
:100840002968EA6801F044FCE8680021C4F27F01ED
:10085000884242D1D5F800E04FF080619EFAAEF2B6
:100860007346B2FA82F76FF3DF433A462068002BF3
:1008700008BF4FEA9E62561C01EB826106F01E0C17
:1008800001F0F84206F01F010126BCF1090F06FA3B
:1008900001F60DD842EA0601002B08BF4FEA9E6719
:1008A0007A1C02F01F0202EB420241EA025111E0FF
:1008B000002B08BF4FEA9E67791C01F01F0100233F
:1008C00001EB4101CFF6206303EB015132431143A9
:1008D00041F00071AA6801F0E9FB688848F208015C
:1008E000084232D001F0A4FB2A680021CCF2213169
:1008F0008A42014604D01020C9F2C000824207D1CA
:10090000080205D42068B0F1A04F2DD00020C4E625
:100910000020CCF25270824208BF11F0807016D0D5
:100920000020CCF6843082424FF0000008BF11F462
:1009300080027FF4B2AE206840F20012C5F20002DD
:10094000904236D041F480000AE00020A5E62068FD
:1009500040F20012C5F20002904228D041F08070AF
:1009600001F0D6FB002098E641F4000001F0D0FB36
:1009700040F20000C2F20000006842F663518009B4
:10098000C0F23E51A0FB0101880900EB40000C21A0
:1009900001EB80000090009868B100BF009801381A
:1009A0000090009800284FF00000F7D175E6002075
:1009B00073E6002071E600206FE6000070B582B09B
:1009C000044600200190CCB1E06D30B9204600F023
:1009D000DFF80020206684F85800206801F03AFB18
:1009E00010B1206801F012FB206801F03FFB38B124
:1009F000206801F03BFBF0B1002525E00125C3E0B4
:100A0000206801F00BFB40F20000C2F20000006819
:100A100042F663518009C0F23E51A0FB01018809F2
:100A2000022101EB400000BF019001980028DFD0B7
:100A300001980138F8E7E06D012540F01000E0650D
:100A4000206E40F001002066206801F013FBE16D8C
:100A500001F010010843E06D03D040F010000125C3
:100A600091E020F481700230E065206801F0F6FA30
:100A700078B94FF0A04001F0F1FA064640F20010BC
:100A8000C5F2000001F0EAFA304302D1606801F0DB
:100A900035FB607FE16B41EA4030D4E90221084335
:100AA00094F824101043012940EA014106D1A06ABC
:100AB0000022CFF6FE7202EB40400143E06A28B10B
:100AC00000F47870226B084340EA02012068626BF0
:100AD000C36844F20706CFF6F07633401943C1608D
:100AE000016921F040611143016101F0AFFAD8BB07
:100AF00094F83800217F400040EA81322068216963
:100B0000C36844F20206B3431A43C260026949B1A2
:100B100042F480320261D0F8C02043F6FF739A435A
:100B2000114307E022F480310161D0F8C01043F690
:100B3000FF729143C0F8C01094F840200169012A67
:100B40000FD140F2FD7204F1440621EA020C4CCEB2
:100B5000216D42EA0C021A433243114341F0010174
:100B600001E021F00101016120686169026B012946
:100B700022F00F0102D1226A013A11430163E06DB4
:100B8000012161F30100E065284602B070BD00005C
:100B900070B598B0044600201790CDE91500CDE956
:100BA000130002A84421FFF787FB2068B0F1A04F93
:100BB00001D018B070BD4FF4004002904FF00050CB
:100BC000119002A800F07EFA002818BFFFF7D8FCA9
:100BD00041F24C00C4F202000168002641F40051C9
:100BE0000160016801F4005101910199016841F02F
:100BF00001010160006813A900F001000190019853
:100C00000320CDE913004FF09040159600F08CF8CA
:100C100040F274250820C2F20005C4F2020005214A
:100C200080224FF480734FF4806C85E8430028469F
:100C3000C5E90362C5E9053CC5E9076600F008F8A7
:100C4000002818BFFFF79CFC6565AC6218B070BD4A
:100C5000002804BF012070472DE9F04140F2000C4C
:100C60000446C4F2020C00684FF6F8330CF58162BA
:100C7000CBF6FD73904238BF03F5806303EB0002AF
:100C80004CF6CD43CCF6CC43A2FB032304F1080E73
:100C90000CF580616FF003059EE804413CBF002124
:100CA000C4F2020105EA9303C4E91013022184F897
:100CB0002510016847F6F073994304F114071143B6
:100CC000E8CF41EA080141EA0E01194329433143C3
:100CD000394301602046FFF719FCA06804F148037E
:100CE000B0F5804F04BF0020606060680ECBC7B2D3
:100CF000013803280F60536009D82046FFF72CFC09
:100D000004F1540207CA002303604A6003E0002094
:100D1000C4E91500E06500200121E06384F8251096
:100D200084F82400BDE8F0812DE9F04F83B00D6810
:100D3000002D00F0C58000F138424FEAB22241F2A6
:100D400000470192C4F600070622002600244FF057
:100D5000010AB84208BF0522009209E00D68043478
:100D600035FA0AF20AF1010A06F1020600F0A8803B
:100D7000AAF1010C012202FA0CFB15EA0B09EDD0D5
:100D8000D1F8048008F00305A5F1010EBEF1010FB2
:100D900011D887680322CB68B24027EA0202B34029
:100DA0001A4382604268C8F3001322EA0B0203FA76
:100DB0000CF31A434260032D1CD0C26803238F68D2
:100DC000B3409A4307FA06F31A43022DC26011D1C9
:100DD0006FF0030202EA5C02024404F01C070F23D6
:100DE000D2F820E003FA07F50B692EEA0505BB40AF
:100DF0002B431362026803234F68B3409A4307F002
:100E00000303B3401A4317F4403F0260A6D041F2F7
:100E10006003C4F202031A6840F2004E42F001027D
:100E20001A601A68C4F2010E02F001020292029ADC
:100E30002CF003024FF608487244CFF6FF7852F8C0
:100E4000083004F00C070F25BD4023EA050C019B78
:100E5000009D052B38BF1D4605FA07F747EA0C032E
:100E600042F80830DEF808204B6842EA090740F2F1
:100E70000C4CDD0258BF22EA0907CEF80870C4F214
:100E8000010CDCF800209D0242EA090758BF22EA63
:100E90000907CCF80070DEF804209D0342EA090738
:100EA00058BF22EA0907CEF80470DEF80020DB0301
:100EB00042EA090758BF22EA0907CEF800704DE759
:100EC00003B0BDE8F08F00001823002A08BF2823D4
:100ED000C150704740F2B830C2F20000006870475D
:100EE00080B5032000F068F80F2000F009F8002812
:100EF0001CBF012080BD00F02FF8002080BD000045
:100F0000B0B540F20C01C2F20001096801B3044619
:100F100040F20000C2F200004FF47A720068B2FBA7
:100F2000F1F1B0FBF1F000F097FD0F2C4FF001054F
:100F30000CD858B94FF0FF3021460022002500F0B0
:100F40002BF840F21000C2F2000004602846B0BD49
:100F500001252846B0BD000080B582B041F258009E
:100F6000C4F20200816841F001018160816801F0F2
:100F7000010101910199016841F08051016000680F
:100F800000F080500090009800F092F802B080BD10
:100F900080B501F029FE80BD70B514460D460646A9
:100FA00001F032FE2946224601F0C8FA01463046D9
:100FB00001F032FE70BD000080B501F03FFE80BD43
:100FC000B0F5007F35D0002866D147F20000C4F2AA
:100FD00000000168D0F8802001F4C06122F4807222
:100FE000B1F5806FC0F8802021D10168012262F341
:100FF0004A21016040F20001C2F200010968322377
:1010000059434DF68363C4F21B33A1FB031302EB78
:10101000934100BF43694A1E8A4203D213F48061A0
:101020001146F7D14069400544BF032070470020B6
:10103000704747F20000C4F200000168D0F8802039
:1010400001F4C06142F48072B1F5806FC0F8802075
:10105000EDD10168012262F34A21016040F20001F2
:10106000C2F200010968322359434DF68363C4F28A
:101070001B33A1FB031302EB934100BF43694A1EDC
:101080008A4203D213F480611146F7D140694005CA
:1010900044BF03207047CAE747F20000C4F20000D3
:1010A0000168022262F34A210160002070470000BB
:1010B00047F20800C4F20000016841F48041016079
:1010C000704700002DE9F04381B08146807841F2FD
:1010D00088070007C4F2020701D4002565E057F82D
:1010E000300C10F080580BD157F8300C40F0805085
:1010F00047F8300C57F8300C00F080500090009802
:1011000047F20004C4F20004206840F480702060BC
:10111000FFF7E0FE054600BF206810F4807607D197
:10112000FFF7D8FE401B0328F6D3032516B933E09A
:1011300000258EB3B86810F4407012D0D9F8401072
:1011400088420BD0B868B96820F4407041F480310F
:10115000B960B96821F48031B960B860C00703D1C3
:1011600011E00020C0070ED0FFF7B4FE064641F2A2
:10117000893400BFB868800705D4FFF7ABFE801B39
:10118000A042F7D303253DB9B868D9F8401020F440
:10119000407008430025B860B8F1000F05D157F83A
:1011A000300C20F0805047F8300CD9F80000C1070F
:1011B00012D1810719D4410720D4010727D4810611
:1011C0002ED4410635D401063CD4C10543D4810553
:1011D0004AD4410551D460E03968D9F8042021F09F
:1011E0000301114339608107E5D53968D9F8082032
:1011F00021F00C01114339604107DED53968D9F877
:101200000C2021F03001114339600107D7D539682E
:10121000D9F8102021F0C001114339608106D0D5E2
:101220003968D9F8142021F440611143396041062E
:10123000C9D53968D9F8182021F4405111433960D3
:101240000106C2D53968D9F81C2021F44041114368
:101250003960C105BBD53968D9F8202021F4403167
:10126000114339608105B4D53968D9F8242021F4B7
:1012700040211143396041050FD53968D9F828203C
:1012800021F440111143B2F5801F396005D157F8A0
:101290007C1C41F4801147F87C1C01050FD539688E
:1012A000D9F82C2021F440011143B2F5800F3960A8
:1012B00005D157F87C1C41F4801147F87C1CC1040F
:1012C0000FD53968D9F8302021F040711143B2F1BF
:1012D000807F396005D157F87C1C41F4801147F8B4
:1012E0007C1C81040FD53968D9F8342021F0406185
:1012F0001143B2F1006F396005D157F87C1C41F4FD
:10130000801147F87C1C41040FD53968D9F8382082
:1013100021F040611143B2F1006F396005D157F8F7
:101320007C1C41F4801147F87C1C00040FD5386800
:10133000D9F83C1020F040500843B1F1805F38608C
:1013400005D157F87C0C40F4803047F87C0C2846D7
:1013500001B0BDE8F08300002DE9F047002800F05F
:10136000CA8042F2000AC4F2020A0446DAF8000017
:101370000D4600F00F0088420DD2DAF8000020F090
:101380000F002843CAF80000DAF8000000F00F0050
:10139000A84240F0B080207841F20808C007C4F2AB
:1013A00002080CD14FF00009206881072BD4B9F155
:1013B000800F41D1D8F8000020F0F0003AE06068DA
:1013C000022800F08C80032840F0918058F8080C27
:1013D000800140F1908001F0C7F84BF20041C0F26B
:1013E000C44188420CD9D8F8000010F0F00F00F08A
:1013F0008E802078800703D5A068002800F08780C1
:101400004FF000098CE0410705D5D8F8001041F4F1
:10141000E061C8F80010000706D5D8F800000721E1
:1014200061F30D20C8F80000D8F80000A16820F092
:10143000F0000843C8F80000DAF8000000F00F00E0
:10144000A84219D9DAF8000020F00F002843CAF8A2
:101450000000FFF73FFD064641F28837DAF800004A
:1014600000F00F00A84207D0FFF734FD801BB84200
:10147000F4D90320BDE8F0872068410707D5D8F8E4
:101480000010E26821F4E0611143C8F80010000781
:1014900008D5D8F80000216920F4605040EAC10066
:1014A000C8F8000000F05CF8D8F8001042F6EC42F2
:1014B000C1F30311C0F60002515C40F2000201F0DA
:1014C0001F0120FA01F140F21000C2F20000006892
:1014D000C2F200021160FFF713FDBDE8F08758F873
:1014E000080C80035CBF0120BDE8F08706E058F8D7
:1014F000080C400502D40120BDE8F08700F030F868
:101500004BF20041C0F2C44188427FF679AFD8F86F
:101510000000082161F307104FF08009C8F80000AF
:10152000D8F80000616820F003000843C8F8000004
:10153000FFF7D0FC064641F2883700BFD8F800001C
:10154000616800F00C00B0EB810F3FF42DAFFFF7A6
:10155000C1FC801BB842F1D90320BDE8F087000030
:1015600041F20C01C4F2020151F8040C42F20042B3
:10157000C0F2F40200F00C000428104608BF7047C7
:1015800051F8040C00F00C00082841F20020C0F2D1
:101590007A0021D051F8043C03F00C030C2B1CBF43
:1015A00000207047D1F800C00B680CF0030CC3F3A7
:1015B00003130133BCF1030F08BF02460868B2FBF6
:1015C000F3F20968C0F306205043C1F341610222DF
:1015D00002EB4101B0FBF1F0704700002DE9F04152
:1015E00082B0002800F001810446007841F2000634
:1015F000C007C4F2020654D12078800772D4207844
:10160000000700F195802078400700F1B380207832
:10161000800600F10081E569002D00F01882B068B5
:1016200000F00C000C2840F05981012D00F0DD8005
:10163000F068216A00F003028A4240F0D680626AB4
:101640006FF00F0300F0F00103EB0212914240F043
:10165000CC80A16A00F4FE42B2EB012F40F0C580BD
:10166000E16A00F07842B2EBC16F40F0BE80226BBD
:101670000023CFF6E07303EB025200F4C0016FF3D6
:101680001402914240F0B180616B4FF07E4202EB58
:10169000016100F0C06001F07E41884240F0A58009
:1016A000D5E1B06800F00C01F068082959D0032298
:1016B00081F00C0122EA00000844B0FA80F04009F1
:1016C0004FD16568B5F5A02F00F0D380B5F5803F08
:1016D00000F0D380306820F480303060306820F42F
:1016E0008020CDE0B068F16800F00C00042866D0DE
:1016F00001F0030180F00C0081F002010844B0FA0F
:1017000080F040095BD1E1683068002900F0D380A7
:1017100040F480703060FFF7DDFB0546306840051F
:1017200000F1FE80FFF7D6FB401B0228F6D930E11E
:101730006169D6F89400002900F0898040F001002A
:10174000C6F89400FFF7C6FB054600BFD6F8940024
:1017500080073FF558AFFFF7BDFB401B0228F5D9C6
:1017600017E1306880037FF547AF606800287FF499
:1017700043AF3AE0B06D10F0805808D1B06D40F042
:101780008050B065B06D00F080500190019847F234
:101790000007C4F200073868C0052AD4386840F44E
:1017A00080703860FFF796FB054600BF3868C005BB
:1017B0001FD4FFF78FFB401B0228F7D9E9E0306800
:1017C000400501D5E06880B17068216920F0FE40D5
:1017D00040EA0160706040F21000C2F20000006850
:1017E000FFF78EFB00283FF40AAF012002B0BDE8EE
:1017F000F081A568052D00F0B080012D00F0B380C8
:10180000D6F8900020F00100C6F89000D6F89000BD
:1018100020F00400ABE0A169D6F89800002900F0A0
:10182000878040F00100C6F89800FFF753FB05469B
:10183000D6F8980080073FF5EEAEFFF74BFB401B54
:1018400002284FF00300F3D902B0BDE8F08120F088
:101850000100C6F89400FFF73DFB0546D6F894005A
:1018600080077FF5D0AEFFF735FB401B0228F5D986
:101870008FE0306840F480203060306840F4803081
:101880003060FFF727FB002D054610D0306880033D
:101890003FF5B2AEFFF71EFB401B6428F6D978E097
:1018A000FFF718FB401B64284FF00300CCD83068CA
:1018B0008003F5D4A0E620F480703060FFF70AFBC7
:1018C000054600BF306840057FF599AEFFF702FB83
:1018D000401B02284FF00300F4D9B5E7306820F030
:1018E00080703060FFF7F6FA022D05460CD100BF7C
:1018F0003068800167D5FFF7EDFA401B02284FF0F2
:101900000300F5D9A0E700BF3068800140F198805E
:10191000FFF7E0FA401B02284FF00300F4D993E7E9
:101920007068216920F0FE4040EA0160706066E660
:1019300020F00100C6F89800FFF7CCFA054600BF7A
:10194000D6F8980080077FF566AEFFF7C3FA401B14
:1019500002284FF00300F3D976E7D6F8900040F064
:101960000400C6F89000D6F8900040F00100C6F8D8
:101970009000FFF7AFFA002D054641F2883715D0E9
:10198000D6F89000800715D4FFF7A4FA401BB842A0
:10199000F6D9032002B0BDE8F08100BFFFF79AFA44
:1019A000401BB8424FF003003FF64EAFD6F8900010
:1019B0008007F3D4B8F1000F7FF429AEB06D20F0AA
:1019C0008050B06523E6F06848F20C01C0F29F1128
:1019D00004F1200700EA010C8ECF6FF00F00D4E96C
:1019E0000C5400EB02100022CFF6E07241EA0C0129
:1019F00002EB055208436FF314024FF07E4540EAB4
:101A0000032005EB0465104305F07E4540EAC760FE
:101A10002843F060306840F080703060F06840F03B
:101A20008070F060FFF756FA0446306880010ED4EB
:101A3000FFF750FA001B02284FF00300F5D903E727
:101A4000F0684FF6FC71CFF6EE610840F0600020C0
:101A500002B0BDE8F081000080B500F0A9FD80BDB6
:101A6000B0B590F83C20012A04BF0220B0BD01228D
:101A700080F83C20D1E90232D1E900CE22F47C5238
:101A800023F4705343EA020448F2FF73CEF6F07376
:101A90000EEA0302224303F5006404EA0C0442EA5E
:101AA000040C0C6903F5C05222404C6942EA0C0256
:101AB000224303F5605422400C6B03F5F0432340AE
:101AC0001A438B6940F2000CCC69CEF6FF7C0CEA1D
:101AD00003431443D0F800C043F20042C4F20102B1
:101AE000944543EA040305D042F60042C4F20102E1
:101AF000944516D14FF6FF72CDF60F421A40D1E948
:101B0000083ED1E90A410025CDF6F04505EA045426
:101B1000224323F008531A432EF000531A4342EA9B
:101B200001030021CCF8443080F83C100846B0BDD9
:101B30000168486D40F4003200204A65704700009B
:101B400070B590F83C20012A4FF002024AD00123E0
:101B500080F83C3080F83D20026843F2004C546825
:101B60009368C4F2010C42F6004E6245C4F2010EC5
:101B700001D0724503D14D6824F470042C434FF614
:101B80008F75CFF6FF550E682C4042F6FF35C4F234
:101B900001053443AA4254600FDCB2F1804F16D0E5
:101BA00040F20046C4F20006B24210D040F60006F1
:101BB000C4F20006B2420AD00EE0724507D044F2E9
:101BC0000006C4F20106B24201D0624504D1896820
:101BD00023F08003194391600121002280F83D1019
:101BE00080F83C20104670BD002804BF01207047DB
:101BF00010B5044690F83D0028B9002084F83C0058
:101C0000204600F023F8022084F83D002068211DC2
:101C100000F0AEFD012084F8480084F83E0084F80E
:101C20003F0084F8400084F8410084F8420084F8C2
:101C3000430084F8440084F8450084F8460084F8A2
:101C4000470084F83D00002010BD000080B584B03E
:101C50000068B0F1804F1AD041F20001C4F20001D7
:101C600088422BD042F60041C4F2010188423AD1A9
:101C700041F25800C4F20200816841F400618160C1
:101C8000806800F400600390039804B080BD41F2C6
:101C90005800C4F202000168002241F00101016015
:101CA0000068002100F00100029002981C20FFF75C
:101CB00073F91C20FFF76CF904B080BD41F25800A5
:101CC000C4F202000168002241F0100101600068C6
:101CD000002100F01000019001983620FFF75CF918
:101CE0003620FFF755F904B080BD000010B504465A
:101CF00090F83C0001284FF0020008BF10BD0B46D1
:101D0000012184F83C1084F83D0020688822816815
:101D1000CFF6CE721140816019686F290DDD1F2248
:101D2000C0F21002914217DCB1F5005F26DA70298B
:101D300040D0B1F5805F5BD03AE02F2918DD4F2904
:101D400021DC302952D0402932D15968DA6800F0BC
:101D500027FF2068402149E03F22C0F21002914253
:101D60001CDC2022C0F2100291423FD030221BE046
:101D7000E1B310293AD0202938D019E025D0B1F1AB
:101D8000101F33D014E050292AD0602910D159688F
:101D9000DA6800F017FF2068602127E04022C0F2D7
:101DA0001002914222D07022C0F2100291421DD046
:101DB00001201EE0D3E90121DB6800F061FD20680D
:101DC000816841F07701816012E0D3E90121DB688D
:101DD00000F056FD2068816841F48041816007E091
:101DE0005968DA6800F0DCFE2068502100F054FDEC
:101DF0000020012184F83D10002184F83C1010BD22
:101E00002DE9F04387B0006842F60041C4F20101B9
:101E100000268842CDE90566CDE90366029602D028
:101E200007B0BDE8F08341F24C00C4F20200016843
:101E300040F2004841F0040101600168C4F6000866
:101E400001F0040101910199016802AC41F0200107
:101E5000016001684FF0020901F020010191019930
:101E6000016841F002010160016801F00201019185
:101E70000199016841F0010101600068214600F00C
:101E80000100019001984FF4005002900420069048
:101E900008F58060CDE903960596FEF745FF01251C
:101EA000062708F580502146CDE90259CDE90466A0
:101EB0000697FEF739FF40462146CDE90259CDE9A4
:101EC00004660697FEF730FF4FF4E060CDE90209A3
:101ED0004FF090402146CDE904660697FEF724FFB7
:101EE00007B0BDE8F0830000B0B5044690F83C00B0
:101EF000012804BF0220B0BD0D464FEAB201012007
:101F0000052984F83C0048D8DFE801F0030B131BD7
:101F100023332068294600F0CBFC206850F8181FB6
:101F20001EE02068294600F003FD206850F8181FC5
:101F300026E02068294600F043FD206850F81C1F69
:101F40000EE02068294600F083FD206850F81C1F31
:101F500016E02068294600F0C3FD206850F8501FA5
:101F600041F008010160016821F004010160296964
:101F70000FE02068294600F0E3FD206850F8501F6C
:101F800041F400610160016821F480610160296908
:101F900009020268114301600020002184F83C100E
:101FA000B0BD0000002804BF0120704710B50446F2
:101FB00090F83D0028B9002084F83C00204600F04D
:101FC00023F8022084F83D002068211D00F0D0FB9A
:101FD000012084F8480084F83E0084F83F0084F82B
:101FE000400084F8410084F8420084F8430084F8FB
:101FF000440084F8450084F8460084F8470084F8DB
:102000003D00002010BD00007047000081684FF6C1
:10201000C072C5F6FF7211408160704781684FF64B
:10202000C072C6F6FF72114001F1805181607047A5
:1020300040F20830C5F20000006800F0E070704720
:1020400000EB8100006E00F0F84070478068C0F33C
:10205000C00070478068C0F340707047806800F02F
:1020600001007047806800F0010070478068C0F38D
:10207000007070478068C0F3800070478068C0F3CC
:1020800080007047C1F3012300EB8300D0F830C01B
:1020900001F01F011F238B40C2F384622CEA03036B
:1020A00002FA01F11943016370470000C1F3406374
:1020B00000EB8300D0F814C0C1F3045107238B4018
:1020C0002CEA030302FA01F1194341617047000051
:1020D00080B54FF6FF7ECB43D0F8B0C0C0F2070EFC
:1020E00002F0180263EA0E032EFA02F203EA0C036E
:1020F00011401943C0F8B01080BD000040F2083113
:10210000C5F200010A6822F47C121043086070478F
:1021100040F20831C5F200010A6822F0E072104373
:102120000860704700EB8100D0F860C04FF20001FA
:10213000C0F2FF3102F0F84201EA0C011A431143E8
:1021400041F000410166704700EB8100016E21F013
:10215000007111430166704700EB8100016E21F0B0
:10216000807111430166704700EB8100016E21F020
:102170000041016670470000426922F000421143AD
:102180004161704710B58CB040F20820C2F20000E7
:102190004FF0A04100244FF44032042380E81600A1
:1021A0004FF48071C0E90543818301214FF4A4629B
:1021B0004FF480630B94CDE90944CDE90744CDE9A0
:1021C0000544CDE90344CDE90144C0E9034401627B
:1021D00080F82440C0E90B2380F83810C46380F8ED
:1021E0004040FEF7EBFB002818BFFEF7C9F940F2AC
:1021F0000820C2F2000009A90994FEF7C7F90028D7
:1022000018BFFEF7BDF90220C0F230400190062051
:10221000002102900420C4F27F010390CDE9041054
:102220000020069040F20820C2F2000001A9FEF74B
:102230001BFA002818BFFEF7A3F90CB010BD000070
:1022400080B582B041F24800C4F202000168002269
:1022500041F004010160016801F00401019101995C
:10226000016841F0010101600068002100F00100F7
:10227000009000980B20FEF78FFE0B20FEF788FEE3
:1022800002B080BD70B586B0002541F24C000595C6
:10229000CDE90355CDE90155C4F20200016840F6CD
:1022A000000441F0040101600168C4F6000401F07B
:1022B0000401009100990168002241F020010160B1
:1022C0000168402601F0200100910099016841F069
:1022D00001010160016801F00101009100990168AC
:1022E00041F0020101600068402100F0020000900E
:1022F00000982046FEF7E8FD0120CDE9020501A97E
:10230000204601960495FEF70FFD06B070BD000053
:10231000B0B59CB0002401A83421CDE91A44CDE920
:102320001844CDE91644CDE91444CDE91244CDE971
:102330001044CDE90E44FDF7BFFF40F2D42042F631
:102340000041C2F20000C4F2010144F2682280237D
:10235000C0E90014C0E90242C0E904448361FFF708
:1023600043FC002818BFFEF70BF94FF4805018907B
:1023700040F2D420C2F2000018A9FFF7B7FC0028F1
:1023800018BFFEF7FDF840F2D420C2F20000FFF7BC
:1023900009FE002818BFFEF7F3F84020159040F220
:1023A000D4200024C2F2000015A9CDE91644FFF79D
:1023B000C7FB002818BFFEF7E3F860200E9042F23A
:1023C0003410CDE90F0440F2D420C2F200000EA96F
:1023D0000022CDE91144CDE91344FFF785FD002823
:1023E00018BFFEF7CDF840F2D420C2F200000EA9CB
:1023F0000422FFF779FD002818BFFEF7C1F840F26C
:10240000D4200025C2F200000EA908220F95FFF784
:102410006BFD002818BFFEF7B3F840F2D424C2F2D7
:1024200000042046FFF784FBAA20CDE904054FF401
:102430000050CDE906054FF00070CDE90A0501A96D
:102440002046CDE901550395CDE90855CDE90C5558
:10245000FFF706FB002818BFFEF792F840F2D420E1
:10246000C2F20000FFF7CCFC1CB0B0BD80B588B054
:1024700040F220300021C2F200004FF0280C0791FA
:10248000CDE90511CDE90311CDE901114FF08042ED
:10249000AA23C0E9021C01618021C0E900238161F7
:1024A000FFF7A2FB002818BFFEF76AF84FF4805030
:1024B000049040F22030C2F2000004A9FFF716FC9D
:1024C000002818BFFEF75CF800200190039040F24E
:1024D0002030C2F2000001A9FFF732FB002818BF2C
:1024E000FEF74EF808B080BD10B584B040F26C30F5
:1024F00041F200010024C2F20000C4F2000148F2DF
:10250000D0420394CDE90144C0E90014C0E902427D
:102510008461FFF769FB002818BFFEF731F840F22D
:102520006C30C2F2000001A901940394FFF708FB8C
:10253000002818BFFEF724F804B010BD00F0070013
:1025400080F00703042B28BF04234FF0FF3C03381F
:102550000CFA03F338BF0020994381400CFA00F0D5
:1025600022EA00000843704741F20C00C4F2020066
:102570000168026842F2004301F00301C2F3031252
:10258000C0F2F4030132032904BF41F20023C0F278
:102590007A030168B3FBF2F20068C1F306215143EC
:1025A000C0F34160022202EB4000B1FBF0F0704743
:1025B000B0B501380024B4EB106F1CBF0120B0BDD2
:1025C0004EF21005CEF2000568604FF0FF300F218B
:1025D00000F022FB0720AC6028602046B0BD000060
:1025E000B0B594B006AC20463821FDF765FE002555
:1025F00000200595CDE90355CDE90155FEF7E0FC36
:102600004FF48071099140210A91042102200F9119
:1026100055210690CDE90D00CDE91010CDE912004D
:102620002046FEF7DBFF70B90F2001900320CDE9B3
:10263000020501A80421CDE90455FEF78DFE00280E
:1026400004BF14B0B0BDFDF79BFF00004EF68850EC
:10265000CEF20000016841F4700101607047000093
:1026600042F62040C4F20100416A41F40041416257
:1026700050F8201C21F0200140F8201C50F8201CAC
:1026800041F0400140F8201C016841F00101016067
:10269000016841F004010160016841F0100101602E
:1026A000016841F040010160016841F480710160FE
:1026B000016841F4806101607047000042F600400B
:1026C000C4F20100016841F001010160704700009F
:1026D0001020C4F200000168C90708BF70470168F4
:1026E00021F00101016040F61400C4F60000016809
:1026F00021F04001016070470C20C4F20000016825
:1027000041F0010101604FF08040016841F001019A
:102710000160704780B541F21000C4F2000001680A
:1027200021F00101016040F20400C2F200000188C2
:102730000131018088B200F0A3FA42F63441C4F2BC
:102740000101086000F08AFA0C21C4F2020108605D
:1027500080BD000041F20000C4F20000016841F0B9
:1027600001010160C16841F00101C16070470000D2
:1027700080B540F2FF7C0268C4F2000C604512DDB7
:1027800040F60003C4F20003984215D043F2004320
:10279000C4F2010398420FD042F60043C4F2010391
:1027A000984209D00CE0B0F1804F05D040F20043D0
:1027B000C4F20003984203D14B6822F070021A431E
:1027C00043F2FF33C4F20103984209DC604516DC92
:1027D000B0F1804F28D040F20043C4F2000321E062
:1027E00044F2FF33C4F20103984211DC43F2004388
:1027F000C4F20103984217D044F2000310E040F6FF
:102800000003C4F2000398420ED042F6004307E0F2
:1028100044F60003C4F20103984205D044F2004399
:10282000C4F20103984203D1CB6822F440721A43E8
:102830004B6922F0800E8A6843EA0E03D1F800C08B
:102840000360C262A0F18042A2F596324FEAB22242
:10285000072AC0F828C007D8012303FA02F212F0B1
:10286000E50F1CBF09690163012141610169C907C5
:1028700008BF80BD016921F00101016180BD000038
:10288000D0F808C011432CF47F4C41EA032141EAFF
:102890000C0181607047000082684FF68873CFF6A4
:1028A000CF731A40114341F0070181607047000067
:1028B000B0B5036A026AA0F1804422F0010202620C
:1028C0004268D0F818C08D68A4F59634D1F800E0BD
:1028D00023F002034FEAB424072C43EA05030AD885
:1028E0000125A54015F0E50F1FBFCD6823F00C03AF
:1028F00025F004052B43072C0BD8012505FA04F419
:1029000014F0E50F1FBF22F44072D1E905452243C0
:102910002A434FF68C74CFF6FE740CEA040545EAA0
:102920000E0542608561496841630362B0BD0000E5
:10293000B0B5036A026A43F2004422F01002026258
:10294000C4F201044268D0F818C0A0428C68D1F8E3
:1029500000E023F0200343EA041305D042F60044CC
:10296000C4F20104A04207D1CC686FF0400523F007
:10297000C00305EA04142343A0F18044A4F596346F
:102980004FEAB424072C0DD8012505FA04F414F0FD
:10299000E50F1FBF22F44062D1E9054542EA8402F7
:1029A00042EA850248F6FF44CFF6FF640CEA0405CC
:1029B00045EA0E2542608561496881630362B0BDC6
:1029C000B0B5036A026A43F2004422F480720262E4
:1029D000C4F201044268D0F81CC0A0428C68D1F84F
:1029E00000E023F4007343EA042305D042F60044D8
:1029F000C4F20104A04207D1CC6840F2FF45240292
:102A000023F44063AC432343A0F18044A4F59634FF
:102A10004FEAB424072C0DD8012505FA04F414F06C
:102A2000E50F1FBF22F44052D1E9054542EA0412E6
:102A300042EA05124FF68C74CFF6FE740CEA0405D8
:102A400045EA0E054260C5614968C1630362B0BDD5
:102A5000B0B5036A026A43F2004422F48052026273
:102A6000C4F201044268D0F81CC0A0428C68D1F8BE
:102A700000E023F4005343EA043305D042F6004457
:102A8000C4F20104A04207D1CC6844F6FF752403C8
:102A900023F44043AC432343A0F18044A4F596348F
:102AA0004FEAB424072C0DD8012505FA04F414F0DC
:102AB000E50F1FBF22F44042D1E9054542EA8412E6
:102AC00042EA851248F6FF44CFF6FF640CEA04059B
:102AD00045EA0E254260C561496801640362B0BDE4
:102AE00070B5D0F820C0026AA0F1804522F480328F
:102AF0000262A5F596354268036D0C68D1F808E0CE
:102B00004FEAB525072D0AD8012606FA05F515F076
:102B1000E50F1EBF4D6922F4803242EA05224FF6CE
:102B20008F75CFF6FE752B402343426003652CF46E
:102B30000036496846EA0E428164026270BD0000B8
:102B400070B5D0F820C0026AA0F1804522F480124E
:102B50000262A5F596354268036D0C68D1F808E06D
:102B60004FEAB525072D0AD8012606FA05F515F016
:102B7000E50F1EBF4D6922F4802242EA852248F605
:102B8000FF75CFF6FF652B4043EA042342600365DF
:102B90002CF40016496846EA0E52C164026270BD08
:102BA000D0F820C0036A23F001030362836923F095
:102BB000F00343EA02122CF00A0319438261016216
:102BC00070470000D0F820C0036A23F010030362AE
:102BD000836923F4704343EA02322CF0A00343EAF2
:102BE0000111826101627047002848BF704700F000
:102BF0001F01012202FA01F14EF200124009CEF249
:102C0000000242F8201070474EF60C50CEF2000041
:102C10000068C0F3022070474EF6145300F00F0214
:102C2000CEF2000309011A4400F16043B0F1FF3F06
:102C3000C8BF03F564421170704700004EF60C5196
:102C4000CEF200010A684FF6FF031A4060F30A2231
:102C500042F0806040F0FD700860704742F63440FA
:102C6000C4F20100006848F689014000C8F68801F6
:102C7000A0FB0101C809010408BF012080B2704710
:102C800042F6FC41000AC0F6000131F8100070471E
:102C9000FEF726F9FFF7A4FCFFF7F4FAFFF7D0FAE6
:102CA000FFF736FBFFF720FCFFF76CFAFFF7DEFBC0
:102CB000FFF7D4FF014640F27800C2F20000FDF7B2
:102CC000B9FBFFF7CDFCFFF7F9FCFFF743FD00BFB1
:102CD000FEE7F1EE100A4FF6FF71C0F2C03120EAB4
:102CE000010040F04070E1EE100A70470000000063
:102CF0000000000001020304060708099A100211EF
:102D00006B11D3113B12A2120A137113D7133D1486
:102D1000A31408156C15CF1532169416F416541713
:102D2000B31711186D18C91823197C19D319291A4A
:102D30007E1AD11A221B721BC01B0D1C571CA01C13
:102D4000E71C2C1D6F1DB01DF01D2D1E681EA11E41
:102D5000D71E0C1F3E1F6E1F9C1FC71FF01F172082
:102D60003C205D207D209A20B520CD20E220F5205A
:102D700006211421202128212F2133213421332120
:102D80002F212821202114210621F520E220CD2009
:102D9000B5209A207D205D203C201720F01FC71F02
:102DA0009C1F6E1F3E1F0C1FD71EA11E681E2D1ECE
:102DB000F01DB01D6F1D2C1DE71CA01C571C0D1C09
:102DC000C01B721B221BD11A7E1A291AD3197C1917
:102DD0002319C9186D181118B3175417F41694163F
:102DE0003216CF156C150815A3143D14D7137113A3
:102DF0000A13A2123B12D3116B1102119A10321056
:102E0000C90F610FF90E920E2A0EC30D5D0DF70C5E
:102E1000910C2C0CC80B650B020BA00A400AE009B0
:102E200081092309C7086B081108B80761070B0758
:102E3000B60663061206C20574052705DD04940470
:102E40004D040804C503840344030703CC02930222
:102E50005D022802F601C60198016D0144011D01C1
:102E6000F800D700B7009A007F00670052003F00CB
:102E70002E00200014000C000500010000000100DD
:102E800005000C00140020002E003F0052006700D7
:102E90007F009A00B700D700F8001D0144016D01C2
:102EA0009801C601F60128025D029302CC020703D5
:102EB00044038403C50308044D049404DD0427057A
:102EC0007405C20512066306B6060B076107B8074C
:102ED00011086B08C70823098109E009400AA00A04
:102EE000020B650BC80B2C0C910CF70C5D0DC30D80
:102EF0002A0E920EF90E610FC90F3210202F000812
:102F0000000000201800000014020008382F0008FC
:102F100018000020A809000030020008000000008E
:102F20000024F40000005555AAAA0000010000008A
:082F3000100000000000000089
:04000005080001D915
:00000001FF
